:100000000C945E000C9486000C9486000C94860080
:100010000C9486000C9486000C9486000C94860048
:100020000C9486000C9486000C9486000C94860038
:100030000C9486000C9486000C9486000C94860028
:100040000C9478030C9486000C9446030C942003C3
:100050000C9486000C9486000C9486000C94860008
:100060000C94C2030C9486000000000800020100FA
:100070000003040700000000000000000000000072
:10008000250028002B0000000000240027002A0083
:10009000040404040404040402020202020203032E
:1000A0000303030301020408102040800102040836
:1000B0001020010204081020DD04B80611241FBE20
:1000C000CFEFD8E0DEBFCDBF22E0A4E3B1E001C0B6
:1000D0001D92A535B207E1F711E0A0E0B1E0ECE038
:1000E000F2E102C005900D92A433B107D9F710E0F8
:1000F000CDE5D0E004C02197FE010E94F806CC3582
:10010000D107C9F70E9453050C94F9080C9400001C
:100110000895AF92BF92CF92DF92EF92FF920F932A
:100120001F93CF93DF936C017B018B01040F151F8D
:10013000EB015E01AE18BF08C017D10759F06991F5
:10014000D601ED91FC910190F081E02DC601099559
:10015000892B79F7C501DF91CF911F910F91FF9006
:10016000EF90DF90CF90BF90AF900895FC01538D3A
:10017000448D252F30E0842F90E0821B930B541781
:1001800010F0CF96089501970895FC01918D828D0E
:10019000981761F0A28DAE0FBF2FB11D5D968C91A7
:1001A000928D9F5F9F73928F90E008958FEF9FEFE6
:1001B00008952FB7F8948091AA019091AB01A09176
:1001C000AC01B091AD012FBF8093B6019093B70100
:1001D000A093B801B093B9018EEA91E00E94C500E6
:1001E00097FF26C02FB7F8948091AA019091AB0198
:1001F000A091AC01B091AD012FBF4091B6015091DB
:10020000B7016091B8017091B901841B950BA60BE1
:10021000B70B4091B2015091B3016091B40170915C
:10022000B50184179507A607B707B0F28FEF9FEFC8
:100230000895FC01918D828D981731F0828DE80F21
:10024000F11D858D90E008958FEF9FEF0895FC01DB
:10025000918D228D892F90E0805C9F4F821B9109A8
:100260008F73992708958EEA91E00E94270121E07B
:10027000892B09F420E0822F089580E090E0892BFB
:1002800029F00E94330181110C9400000895FC01B3
:10029000A48DA80FB92FB11DA35ABF4F2C91848DE7
:1002A00090E001968F739927848FA689B7892C9344
:1002B000A089B1898C91837080648C93938D848D97
:1002C000981306C00288F389E02D80818F7D80839A
:1002D0000895EF92FF920F931F93CF93DF93EC015A
:1002E00081E0888F9B8D8C8D98131AC0E889F989DD
:1002F000808185FF15C09FB7F894EE89FF896083E0
:10030000E889F98980818370806480839FBF81E060
:1003100090E0DF91CF911F910F91FF90EF900895A2
:10032000F62E0B8D10E00F5F1F4F0F731127E02E7D
:100330008C8D8E110CC00FB607FCFACFE889F989B5
:10034000808185FFF5CFCE010E944701F1CFEB8D73
:10035000EC0FFD2FF11DE35AFF4FF0829FB7F89489
:100360000B8FEA89FB8980818062CFCFCF93DF93A7
:10037000EC01888D8823B9F0AA89BB89E889F989BD
:100380008C9185FD03C0808186FD0DC00FB607FCF2
:10039000F7CF8C9185FFF2CF808185FFEDCFCE0125
:1003A0000E944701E9CFDF91CF91089590E0FC01D1
:1003B000E859FF4F2491FC01EC55FF4F3491FC01AB
:1003C000E057FF4FE491EE23C9F0222339F02330A8
:1003D00001F1A8F4213019F1223029F1F0E0EE0FFB
:1003E000FF1FE458FF4FA591B4918FB7F894EC919B
:1003F000611126C030953E233C938FBF089527306E
:10040000A9F02830C9F0243049F7809180008F7D11
:1004100003C0809180008F7780938000DFCF84B508
:100420008F7784BDDBCF84B58F7DFBCF8091B0000B
:100430008F778093B000D2CF8091B0008F7DF9CFBD
:100440003E2BDACF20915B01260F3327331F213259
:100450003105ECF420917F01FC0190E080E0243034
:1004600069F082E00895A0915B012191AC01455CA7
:100470005E4FA40FB52FB11D2C930196861798F3EC
:1004800080915B01680F60935B0180E0089581E0DB
:10049000089508958FEF9FEF08958FEF9FEF0895D0
:1004A0008091340190E09195819591090895CF93C1
:1004B000DF93CB01EA01642F0E942202CE01DF917B
:1004C000CF910895CF93DF931F92CDB7DEB76983A5
:1004D00061E0CE0101960E94220281E090E00F903F
:1004E000DF91CF91089590E080E00895FC010190A4
:1004F0000020E9F73197AF01481B590BBC018EEA88
:1005000091E00C9489000F931F93CF93DF93EC013C
:1005100088819981009759F02A813B8126173707F6
:1005200030F081E0DF91CF911F910F9108958B0101
:100530006F5F7F4F0E942308009759F0998388834B
:100540001B830A832C813D81232B59F7FC011082E8
:10055000E8CF80E0E7CF1F93CF93DF9385ED8093C3
:10056000BC008091370190913801A0913901B09180
:100570003A010796A11DB11D23E0B695A795979561
:1005800087952A95D1F72091BC0024FD03C01092D5
:100590007F0152C04091370150913801609139017B
:1005A00070913A01452B462B472B69F30097A10523
:1005B000B10541F025E32A95F1F700000197A10963
:1005C000B109E1CF80913601C1E0C09335018823A4
:1005D00099F1D091B8001091BA008091BC008A7B4B
:1005E0008093BC0060E082E10E94D60160E083E17C
:1005F0000E94D60110927F01C09381011092800168
:1006000061E082E10E94D60161E083E10E94D601AF
:100610008091B9008E7F8093B9008091B9008D7F61
:100620008093B90088E48093B80085E48093BC008F
:100630001093BA00D093B800DF91CF911F91089525
:100640001F920F920FB60F9211242F933F934F9347
:100650005F936F937F938F939F93AF93BF93EF932A
:10066000FF938EEA91E00E944701FF91EF91BF91C5
:10067000AF919F918F917F916F915F914F913F913A
:100680002F910F900FBE0F901F9018951F920F92F1
:100690000FB60F9211242F938F939F93EF93FF9395
:1006A000E091BE01F091BF018081E091C401F09121
:1006B000C50182FD1BC090818091C7018F5F8F7340
:1006C0002091C801821741F0E091C701F0E0E255A6
:1006D000FE4F958F8093C701FF91EF919F918F916E
:1006E0002F910F900FBE0F901F9018958081F4CF1F
:1006F0001F920F920FB60F9211242F933F938F9357
:100700009F93AF93BF938091AA019091AB01A09169
:10071000AC01B091AD013091A90123E0230F2D3739
:1007200058F50196A11DB11D2093A9018093AA013E
:100730009093AB01A093AC01B093AD018091A50162
:100740009091A601A091A701B091A8010196A11DC9
:10075000B11D8093A5019093A601A093A701B0932A
:10076000A801BF91AF919F918F913F912F910F90D1
:100770000FBE0F901F90189526E8230F0296A11D1B
:10078000B11DD2CF1F920F920FB60F9211242F934B
:100790003F934F935F936F937F938F939F93AF9309
:1007A000BF93EF93FF938091B900887F803609F45F
:1007B0004AC0F0F5883209F4A5C018F5803109F473
:1007C00099C0B8F4882309F4F5C0883009F492C0C0
:1007D000FF91EF91BF91AF919F918F917F916F9119
:1007E0005F914F913F912F910F900FBE0F901F90EF
:1007F0001895883109F486C0803251F780937E01C4
:1008000014C0803409F49BC040F48033B9F38833BA
:10081000F9F680937E0185ECAEC0803509F483C083
:10082000883509F494C0883499F60E94AB02D0CF81
:10083000883909F48AC038F5883729F050F48836A9
:1008400011F0803729F683E080937F0110927D01BB
:1008500055C0883809F479C0803919F0803809F01A
:10086000B7CF80917D01803208F06FC0E0917D01AB
:1008700081E08E0F80937D018091BB00F0E0E35A10
:10088000FE4F80833BC0803B39F0D0F4803A09F4BE
:1008900077C0883A09F09CCF84E080937F01109262
:1008A0005C0110925B01F0E0E0E0099580915B0152
:1008B00081110FC081E080935B0110923B0109C060
:1008C000803C09F4A8CF883C09F4A5CF883B09F007
:1008D0007FCFE0915C0181E08E0F80935C01F0E0BE
:1008E000E55CFE4F80818093BB0090915C0180911C
:1008F0005B0129C08091A4018093BB0085EC8093AB
:10090000BC0066CF9091A3018091A201981758F581
:10091000E091A30181E08E0F8093A301F0E0EE57F8
:10092000FE4F8081E9CFE091A30181E08E0F80939B
:10093000A3018091BB00F0E0EE57FE4F80839091C1
:10094000A3018091A2019817C8F285E8D8CFE09161
:10095000A30181E08E0F8093A3018091BB00F0E0A2
:10096000EE57FE4F80838091810181115ECF81E03F
:100970008093800184EA8093BC0010927F0128CF8D
:1009800085EC8093BC0010927F0180917D018032C4
:1009900030F4E0917D01F0E0E35AFE4F1082609167
:1009A0007D0170E08DE591E0F0E0E0E009951092C6
:1009B0007D010ECF10927E0138CF1092B1011092BE
:1009C000B00188EE93E0A0E0B0E08093B201909394
:1009D000B301A093B401B093B5018AE091E0909384
:1009E000AF018093AE0185EC90E09093BB018093C2
:1009F000BA0184EC90E09093BD018093BC0180EC3F
:100A000090E09093BF018093BE0181EC90E09093C1
:100A1000C1018093C00182EC90E09093C301809368
:100A2000C20186EC90E09093C5018093C4011092BE
:100A3000C7011092C8011092C9011092CA01109208
:100A40004C0210924B0210924E0210924D021092E4
:100A5000500210924F0270E060E08BE492E00E943E
:100A6000830220914B0230914C02811113C0211559
:100A7000310519F0C9010E949A0710924C02109298
:100A80004B021092500210924F0210924E0210929E
:100A90004D0208951092500210924F0266E271E0EA
:100AA000C9010C94F208CF93DF93CDB7DEB7289736
:100AB0000FB6F894DEBF0FBECDBF789484B58260C8
:100AC00084BD84B5816084BD85B5826085BD85B5F2
:100AD000816085BD80916E00816080936E00109270
:100AE00081008091810082608093810080918100EB
:100AF000816080938100809180008160809380007C
:100B00008091B10084608093B1008091B0008160D9
:100B10008093B00080917A00846080937A00809105
:100B20007A00826080937A0080917A00816080935D
:100B30007A0080917A00806880937A001092C100D8
:100B4000E091BE01F091BF0182E08083E091BA01A3
:100B5000F091BB011082E091BC01F091BD018FECDE
:100B600080831092C601E091C201F091C30186E03A
:100B70008083E091C001F091C10180818061808318
:100B8000E091C001F091C101808188608083E09193
:100B9000C001F091C101808180688083E091C00133
:100BA000F091C10180818F7D8083EDEAF0E0249196
:100BB000E9E9F0E08491882399F090E0880F991F8B
:100BC000FC01EA57FF4FA591B491FC01E458FF4F97
:100BD000859194918FB7F894EC91E22BEC938FBFB1
:100BE00080E0E82E80E0F82E8EEA91E00E94270156
:100BF000181619060CF086C01A8219821C821B82F4
:100C00001E821D8270E060E0CE0101960E94830288
:100C100029813A8181112EC02115310519F0C901B0
:100C20000E949A071A8219821E821D821C821B82D0
:100C30000E94D90097FD26C08A30910519F18F8353
:100C400018860D811E810F5F1F4FB801CE010196DE
:100C50000E948302882361F329813A818D819E81DC
:100C6000BE01695F7F4F820F931F0E94F2081E83AF
:100C70000D83DECF1E821D8266E271E0C9010E94F3
:100C8000F208D6CF80914B0290914C02009709F464
:100C900047C069817A816115710509F43FC04091AF
:100CA0004D0250914E022D813E8142175307B0F103
:100CB0000E94F2088D819E819093500280934F0292
:100CC0001E821D8289819A81009711F00E949A07E5
:100CD00080914F0290915002892B09F446C00091F7
:100CE0004B0210914C026CE171E0C8010E94E908CE
:100CF000892B69F561E089E00E94D60188E191E0E5
:100D00000E947602E114F10409F46ECF0E943301CF
:100D1000882309F469CF0E94000066CF0E949A07D9
:100D200089819A8190934C0280934B028B819C81A4
:100D300090934E0280934D028D819E81909350023C
:100D400080934F021A8219821C821B82B9CF63E200
:100D500071E0C8010E94E908892B39F460E089E05C
:100D60000E94D6018FE191E0CBCF87E291E0C8CF1E
:100D700080914B0290914C02009711F00C949A07CD
:100D800008952F923F924F925F926F927F928F922F
:100D90009F92AF92BF92CF92DF92EF92FF920F930A
:100DA0001F93CF93DF93CDB7DEB7CA1BDB0B0FB614
:100DB000F894DEBF0FBECDBF09942A8839884888D1
:100DC0005F846E847D848C849B84AA84B984C88467
:100DD000DF80EE80FD800C811B81AA81B981CE0F5E
:100DE000D11D0FB6F894DEBF0FBECDBFED01089543
:100DF000EE0FFF1F0590F491E02D09940F931F93C0
:100E0000CF93DF938230910510F482E090E0E0917F
:100E10005302F091540230E020E0B0E0A0E03097BF
:100E200099F42115310509F44AC0281B390B2430E7
:100E30003105D8F58A819B816115710589F1FB0126
:100E400093838283FE0111C040815181028113810D
:100E500048175907E0F04817590799F4109761F0BF
:100E600012960C93129713961C933296CF01DF9132
:100E7000CF911F910F910895009353021093540244
:100E8000F4CF2115310551F04217530738F0A9016D
:100E9000DB019A01BD01DF01F801C1CFEF01F9CFFC
:100EA0009093540280935302CDCFFE01E20FF31FC3
:100EB000819391932250310939832883D7CF209190
:100EC000510230915202232B41F4209102013091C2
:100ED000030130935202209351022091000130917E
:100EE00001012115310541F42DB73EB740910401B0
:100EF00050910501241B350BE0915102F0915202F3
:100F0000E217F307A0F42E1B3F0B2817390778F0E0
:100F1000AC014E5F5F4F2417350748F04E0F5F1F3F
:100F20005093520240935102819391939FCFF0E0EE
:100F3000E0E09CCFCF93DF930097E9F0FC0132977C
:100F400013821282A0915302B0915402ED0130E05D
:100F500020E01097A1F420813181820F931F20910E
:100F60005102309152022817390709F061C0F093FD
:100F70005202E0935102DF91CF910895EA01CE171A
:100F8000DF07E8F54A815B819E0141155105B1F704
:100F9000E901FB83EA8349915991C40FD51FEC17EE
:100FA000FD0761F4808191810296840F951FE9010C
:100FB00099838883828193819B838A83F0E0E0E038
:100FC00012968D919C9113970097B9F52D913C91B4
:100FD0001197CD010296820F931F209151023091FB
:100FE00052022817390739F6309751F510925402FA
:100FF00010925302B0935202A0935102BCCFD383FC
:10100000C28340815181840F951FC817D90761F4AD
:101010004E5F5F4F88819981480F591F51834083EC
:101020008A819B81938382832115310509F0B0CF9A
:10103000F0935402E09353029ECFFD01DC01C0CF38
:1010400013821282D7CFB0E0A0E0E9E2F8E00C947E
:10105000C3068C01009751F4CB010E94FE068C015F
:10106000C801CDB7DEB7E0E10C94DF06FC01E60F66
:10107000F71F9C0122503109E217F30708F49DC0C5
:10108000D901CD91DC911197C617D70798F0C530DB
:10109000D10530F3CE0104978617970708F3C61BD6
:1010A000D70B2297C193D1936D937C93CF010E946C
:1010B0009A07D6CF5B01AC1ABD0A4C018C0E9D1E5F
:1010C000A0915302B0915402512C412CF12CE12CEF
:1010D000109731F58091510290915202881599052F
:1010E00009F05CC04616570608F058C08091000110
:1010F00090910101009741F48DB79EB74091040192
:1011000050910501841B950BE817F90708F055C0AD
:10111000F0935202E0935102F90171836083A0CFF2
:101120008D919C91119712966C90129713967C90CA
:101130001397A815B90559F56C0142E0C40ED11CEE
:10114000CA14DB0420F1AC014A195B09DA011296DA
:10115000159780F06282738251834083D9016D9329
:101160007C93E114F10471F0D7011396FC93EE9394
:10117000129776CF22968C0F9D1FF9019183808361
:10118000F301EFCFF0935402E093530269CF481676
:10119000590608F42C017D01D3019ACFCB010E949E
:1011A000FE067C01009749F0AE01B8010E94E008FC
:1011B000C8010E949A07870153CF10E000E050CF8A
:1011C000FB01DC0102C001900D9241505040D8F764
:1011D0000895FB01DC018D91019080190110D9F374
:1011E000990B0895FB01DC0101900D920020E1F7BD
:1011F000089510E0CDE5D0E004C0FE010E94F8069D
:0C1200002196CE35D107C9F7F894FFCF36
:10120C000000550280000000000069018900B60052
:10121C00B6012701C50019014C6564206F6E004CA6
:10122C006564206F666600696E76616C6420696E19
:04123C007075740055
:00000001FF
